{
  "_format": "hh-sol-artifact-1",
  "contractName": "SimpleAccount",
  "sourceName": "contracts/SimpleAccount.sol",
  "abi": [
    {
      "inputs": [
        {
          "internalType": "contract IEntryPoint",
          "name": "anEntryPoint",
          "type": "address"
        }
      ],
      "stateMutability": "nonpayable",
      "type": "constructor"
    },
    {
      "inputs": [
        {
          "internalType": "address",
          "name": "target",
          "type": "address"
        }
      ],
      "name": "AddressEmptyCode",
      "type": "error"
    },
    {
      "inputs": [],
      "name": "ECDSAInvalidSignature",
      "type": "error"
    },
    {
      "inputs": [
        {
          "internalType": "uint256",
          "name": "length",
          "type": "uint256"
        }
      ],
      "name": "ECDSAInvalidSignatureLength",
      "type": "error"
    },
    {
      "inputs": [
        {
          "internalType": "bytes32",
          "name": "s",
          "type": "bytes32"
        }
      ],
      "name": "ECDSAInvalidSignatureS",
      "type": "error"
    },
    {
      "inputs": [
        {
          "internalType": "address",
          "name": "implementation",
          "type": "address"
        }
      ],
      "name": "ERC1967InvalidImplementation",
      "type": "error"
    },
    {
      "inputs": [],
      "name": "ERC1967NonPayable",
      "type": "error"
    },
    {
      "inputs": [],
      "name": "FailedCall",
      "type": "error"
    },
    {
      "inputs": [],
      "name": "InvalidInitialization",
      "type": "error"
    },
    {
      "inputs": [],
      "name": "NotInitializing",
      "type": "error"
    },
    {
      "inputs": [],
      "name": "UUPSUnauthorizedCallContext",
      "type": "error"
    },
    {
      "inputs": [
        {
          "internalType": "bytes32",
          "name": "slot",
          "type": "bytes32"
        }
      ],
      "name": "UUPSUnsupportedProxiableUUID",
      "type": "error"
    },
    {
      "anonymous": false,
      "inputs": [
        {
          "indexed": false,
          "internalType": "uint64",
          "name": "version",
          "type": "uint64"
        }
      ],
      "name": "Initialized",
      "type": "event"
    },
    {
      "anonymous": false,
      "inputs": [
        {
          "indexed": true,
          "internalType": "contract IEntryPoint",
          "name": "entryPoint",
          "type": "address"
        },
        {
          "indexed": true,
          "internalType": "address",
          "name": "owner",
          "type": "address"
        }
      ],
      "name": "SimpleAccountInitialized",
      "type": "event"
    },
    {
      "anonymous": false,
      "inputs": [
        {
          "indexed": true,
          "internalType": "address",
          "name": "implementation",
          "type": "address"
        }
      ],
      "name": "Upgraded",
      "type": "event"
    },
    {
      "inputs": [],
      "name": "UPGRADE_INTERFACE_VERSION",
      "outputs": [
        {
          "internalType": "string",
          "name": "",
          "type": "string"
        }
      ],
      "stateMutability": "view",
      "type": "function"
    },
    {
      "inputs": [],
      "name": "addDeposit",
      "outputs": [],
      "stateMutability": "payable",
      "type": "function"
    },
    {
      "inputs": [],
      "name": "entryPoint",
      "outputs": [
        {
          "internalType": "contract IEntryPoint",
          "name": "",
          "type": "address"
        }
      ],
      "stateMutability": "view",
      "type": "function"
    },
    {
      "inputs": [
        {
          "internalType": "address",
          "name": "dest",
          "type": "address"
        },
        {
          "internalType": "uint256",
          "name": "value",
          "type": "uint256"
        },
        {
          "internalType": "bytes",
          "name": "func",
          "type": "bytes"
        }
      ],
      "name": "execute",
      "outputs": [],
      "stateMutability": "nonpayable",
      "type": "function"
    },
    {
      "inputs": [
        {
          "internalType": "address[]",
          "name": "dest",
          "type": "address[]"
        },
        {
          "internalType": "bytes[]",
          "name": "func",
          "type": "bytes[]"
        }
      ],
      "name": "executeBatch",
      "outputs": [],
      "stateMutability": "nonpayable",
      "type": "function"
    },
    {
      "inputs": [],
      "name": "getDeposit",
      "outputs": [
        {
          "internalType": "uint256",
          "name": "",
          "type": "uint256"
        }
      ],
      "stateMutability": "view",
      "type": "function"
    },
    {
      "inputs": [],
      "name": "getNonce",
      "outputs": [
        {
          "internalType": "uint256",
          "name": "",
          "type": "uint256"
        }
      ],
      "stateMutability": "view",
      "type": "function"
    },
    {
      "inputs": [
        {
          "internalType": "address",
          "name": "anOwner",
          "type": "address"
        }
      ],
      "name": "initialize",
      "outputs": [],
      "stateMutability": "nonpayable",
      "type": "function"
    },
    {
      "inputs": [],
      "name": "owner",
      "outputs": [
        {
          "internalType": "address",
          "name": "",
          "type": "address"
        }
      ],
      "stateMutability": "view",
      "type": "function"
    },
    {
      "inputs": [],
      "name": "proxiableUUID",
      "outputs": [
        {
          "internalType": "bytes32",
          "name": "",
          "type": "bytes32"
        }
      ],
      "stateMutability": "view",
      "type": "function"
    },
    {
      "inputs": [
        {
          "internalType": "address",
          "name": "newImplementation",
          "type": "address"
        },
        {
          "internalType": "bytes",
          "name": "data",
          "type": "bytes"
        }
      ],
      "name": "upgradeToAndCall",
      "outputs": [],
      "stateMutability": "payable",
      "type": "function"
    },
    {
      "inputs": [
        {
          "components": [
            {
              "internalType": "address",
              "name": "sender",
              "type": "address"
            },
            {
              "internalType": "uint256",
              "name": "nonce",
              "type": "uint256"
            },
            {
              "internalType": "bytes",
              "name": "initCode",
              "type": "bytes"
            },
            {
              "internalType": "bytes",
              "name": "callData",
              "type": "bytes"
            },
            {
              "internalType": "uint256",
              "name": "callGasLimit",
              "type": "uint256"
            },
            {
              "internalType": "uint256",
              "name": "verificationGasLimit",
              "type": "uint256"
            },
            {
              "internalType": "uint256",
              "name": "preVerificationGas",
              "type": "uint256"
            },
            {
              "internalType": "uint256",
              "name": "maxFeePerGas",
              "type": "uint256"
            },
            {
              "internalType": "uint256",
              "name": "maxPriorityFeePerGas",
              "type": "uint256"
            },
            {
              "internalType": "bytes",
              "name": "paymasterAndData",
              "type": "bytes"
            },
            {
              "internalType": "bytes",
              "name": "signature",
              "type": "bytes"
            }
          ],
          "internalType": "struct UserOperation",
          "name": "userOp",
          "type": "tuple"
        },
        {
          "internalType": "bytes32",
          "name": "userOpHash",
          "type": "bytes32"
        },
        {
          "internalType": "uint256",
          "name": "missingAccountFunds",
          "type": "uint256"
        }
      ],
      "name": "validateUserOp",
      "outputs": [
        {
          "internalType": "uint256",
          "name": "validationData",
          "type": "uint256"
        }
      ],
      "stateMutability": "nonpayable",
      "type": "function"
    },
    {
      "inputs": [
        {
          "internalType": "address payable",
          "name": "withdrawAddress",
          "type": "address"
        },
        {
          "internalType": "uint256",
          "name": "amount",
          "type": "uint256"
        }
      ],
      "name": "withdrawDepositTo",
      "outputs": [],
      "stateMutability": "nonpayable",
      "type": "function"
    }
  ],
  "bytecode": "0x60c06040523060805234801561001457600080fd5b506040516115bc3803806115bc83398101604081905261003391610100565b6001600160a01b03811660a05261004861004e565b50610130565b7ff0c57e16840df040f15088dc2f81fe391c3923bec73e23a9662efc9c229c6a00805468010000000000000000900460ff161561009e5760405163f92ee8a960e01b815260040160405180910390fd5b80546001600160401b03908116146100fd5780546001600160401b0319166001600160401b0390811782556040519081527fc7f505b2f371ae2175ee4913f4499e1f2633a7b5936321eed1cdaeb6115181d29060200160405180910390a15b50565b60006020828403121561011257600080fd5b81516001600160a01b038116811461012957600080fd5b9392505050565b60805160a051611428610194600039600081816101f10152818161039d0152818161041e01528181610550015281816106e30152818161071d0152818161081c0152610be90152600081816109ee01528181610a170152610b5d01526114286000f3fe6080604052600436106100c25760003560e01c80638da5cb5b1161007f578063b61d27f611610059578063b61d27f614610215578063c399ec8814610235578063c4d66de81461024a578063d087d2881461026a57600080fd5b80638da5cb5b1461016c578063ad3cb1cc146101a4578063b0d691fe146101e257600080fd5b806318dfb3c7146100c75780633a871cdd146100e95780634a58db191461011c5780634d44560d146101245780634f1ef2861461014457806352d1902d14610157575b600080fd5b3480156100d357600080fd5b506100e76100e2366004611052565b61027f565b005b3480156100f557600080fd5b506101096101043660046110be565b610375565b6040519081526020015b60405180910390f35b6100e761039b565b34801561013057600080fd5b506100e761013f366004611127565b610414565b6100e7610152366004611169565b6104a5565b34801561016357600080fd5b506101096104c4565b34801561017857600080fd5b5060005461018c906001600160a01b031681565b6040516001600160a01b039091168152602001610113565b3480156101b057600080fd5b506101d5604051806040016040528060058152602001640352e302e360dc1b81525081565b6040516101139190611251565b3480156101ee57600080fd5b507f000000000000000000000000000000000000000000000000000000000000000061018c565b34801561022157600080fd5b506100e7610230366004611284565b6104e1565b34801561024157600080fd5b50610109610530565b34801561025657600080fd5b506100e761026536600461130d565b6105c1565b34801561027657600080fd5b506101096106bc565b610287610712565b8281146102d15760405162461bcd60e51b815260206004820152601360248201527277726f6e67206172726179206c656e6774687360681b60448201526064015b60405180910390fd5b60005b8381101561036e576103668585838181106102f1576102f161132a565b9050602002016020810190610306919061130d565b600085858581811061031a5761031a61132a565b905060200281019061032c9190611340565b8080601f0160208091040260200160405190810160405280939291908181526020018383808284376000920191909152506107a192505050565b6001016102d4565b5050505050565b600061037f610811565b6103898484610889565b905061039482610932565b9392505050565b7f000000000000000000000000000000000000000000000000000000000000000060405163b760faf960e01b81523060048201526001600160a01b03919091169063b760faf99034906024016000604051808303818588803b15801561040057600080fd5b505af115801561036e573d6000803e3d6000fd5b61041c61097f565b7f000000000000000000000000000000000000000000000000000000000000000060405163040b850f60e31b81526001600160a01b03848116600483015260248201849052919091169063205c287890604401600060405180830381600087803b15801561048957600080fd5b505af115801561049d573d6000803e3d6000fd5b505050505050565b6104ad6109e3565b6104b682610a88565b6104c08282610a90565b5050565b60006104ce610b52565b506000805160206113d383398151915290565b6104e9610712565b61052a848484848080601f0160208091040260200160405190810160405280939291908181526020018383808284376000920191909152506107a192505050565b50505050565b6040516370a0823160e01b81523060048201526000906001600160a01b037f000000000000000000000000000000000000000000000000000000000000000016906370a08231906024015b602060405180830381865afa158015610598573d6000803e3d6000fd5b505050506040513d601f19601f820116820180604052508101906105bc9190611387565b905090565b60006105cb610b9b565b805490915060ff600160401b820416159067ffffffffffffffff166000811580156105f35750825b905060008267ffffffffffffffff1660011480156106105750303b155b90508115801561061e575080155b1561063c5760405163f92ee8a960e01b815260040160405180910390fd5b845467ffffffffffffffff19166001178555831561066657845460ff60401b1916600160401b1785555b61066f86610bc4565b831561049d57845460ff60401b19168555604051600181527fc7f505b2f371ae2175ee4913f4499e1f2633a7b5936321eed1cdaeb6115181d29060200160405180910390a1505050505050565b604051631aab3f0d60e11b8152306004820152600060248201819052906001600160a01b037f000000000000000000000000000000000000000000000000000000000000000016906335567e1a9060440161057b565b336001600160a01b037f000000000000000000000000000000000000000000000000000000000000000016148061075357506000546001600160a01b031633145b61079f5760405162461bcd60e51b815260206004820181905260248201527f6163636f756e743a206e6f74204f776e6572206f7220456e747279506f696e7460448201526064016102c8565b565b600080846001600160a01b031684846040516107bd91906113a0565b60006040518083038185875af1925050503d80600081146107fa576040519150601f19603f3d011682016040523d82523d6000602084013e6107ff565b606091505b50915091508161036e57805160208201fd5b336001600160a01b037f0000000000000000000000000000000000000000000000000000000000000000161461079f5760405162461bcd60e51b815260206004820152601c60248201527f6163636f756e743a206e6f742066726f6d20456e747279506f696e740000000060448201526064016102c8565b7f19457468657265756d205369676e6564204d6573736167653a0a3332000000006000908152601c829052603c8120610904816108ca610140870187611340565b8080601f016020809104026020016040519081016040528093929190818152602001838380828437600092019190915250610c3392505050565b6000546001600160a01b03908116911614610923576001915050610929565b60009150505b92915050565b50565b801561092f57604051600090339060001990849084818181858888f193505050503d806000811461036e576040519150601f19603f3d011682016040523d82523d6000602084013e61036e565b6000546001600160a01b031633148061099757503330145b61079f5760405162461bcd60e51b815260206004820152601a60248201527f6163636f756e743a206e6f74204f776e6572206f722073656c6600000000000060448201526064016102c8565b306001600160a01b037f0000000000000000000000000000000000000000000000000000000000000000161480610a6a57507f00000000000000000000000000000000000000000000000000000000000000006001600160a01b0316610a5e6000805160206113d3833981519152546001600160a01b031690565b6001600160a01b031614155b1561079f5760405163703e46dd60e11b815260040160405180910390fd5b61092f61097f565b816001600160a01b03166352d1902d6040518163ffffffff1660e01b8152600401602060405180830381865afa925050508015610aea575060408051601f3d908101601f19168201909252610ae791810190611387565b60015b610b1257604051634c9c8ce360e01b81526001600160a01b03831660048201526024016102c8565b6000805160206113d38339815191528114610b4357604051632a87526960e21b8152600481018290526024016102c8565b610b4d8383610c5d565b505050565b306001600160a01b037f0000000000000000000000000000000000000000000000000000000000000000161461079f5760405163703e46dd60e11b815260040160405180910390fd5b6000807ff0c57e16840df040f15088dc2f81fe391c3923bec73e23a9662efc9c229c6a00610929565b600080546001600160a01b0319166001600160a01b03838116918217835560405191927f0000000000000000000000000000000000000000000000000000000000000000909116917f47e55c76e7a6f1fd8996a1da8008c1ea29699cca35e7bcd057f2dec313b6e5de9190a350565b600080600080610c438686610cb3565b925092509250610c538282610d00565b5090949350505050565b610c6682610db9565b6040516001600160a01b038316907fbc7cd75a20ee27fd9adebab32041f755214dbc6bffa90cc0225b39da2e5c2d3b90600090a2805115610cab57610b4d8282610e1e565b6104c0610e94565b60008060008351604103610ced5760208401516040850151606086015160001a610cdf88828585610eb3565b955095509550505050610cf9565b50508151600091506002905b9250925092565b6000826003811115610d1457610d146113bc565b03610d1d575050565b6001826003811115610d3157610d316113bc565b03610d4f5760405163f645eedf60e01b815260040160405180910390fd5b6002826003811115610d6357610d636113bc565b03610d845760405163fce698f760e01b8152600481018290526024016102c8565b6003826003811115610d9857610d986113bc565b036104c0576040516335e2f38360e21b8152600481018290526024016102c8565b806001600160a01b03163b600003610def57604051634c9c8ce360e01b81526001600160a01b03821660048201526024016102c8565b6000805160206113d383398151915280546001600160a01b0319166001600160a01b0392909216919091179055565b6060600080846001600160a01b031684604051610e3b91906113a0565b600060405180830381855af49150503d8060008114610e76576040519150601f19603f3d011682016040523d82523d6000602084013e610e7b565b606091505b5091509150610e8b858383610f82565b95945050505050565b341561079f5760405163b398979f60e01b815260040160405180910390fd5b600080807f7fffffffffffffffffffffffffffffff5d576e7357a4501ddfe92f46681b20a0841115610eee5750600091506003905082610f78565b604080516000808252602082018084528a905260ff891692820192909252606081018790526080810186905260019060a0016020604051602081039080840390855afa158015610f42573d6000803e3d6000fd5b5050604051601f1901519150506001600160a01b038116610f6e57506000925060019150829050610f78565b9250600091508190505b9450945094915050565b606082610f9757610f9282610fde565b610394565b8151158015610fae57506001600160a01b0384163b155b15610fd757604051639996b31560e01b81526001600160a01b03851660048201526024016102c8565b5080610394565b805115610fed57805160208201fd5b60405163d6bda27560e01b815260040160405180910390fd5b60008083601f84011261101857600080fd5b50813567ffffffffffffffff81111561103057600080fd5b6020830191508360208260051b850101111561104b57600080fd5b9250929050565b6000806000806040858703121561106857600080fd5b843567ffffffffffffffff8082111561108057600080fd5b61108c88838901611006565b909650945060208701359150808211156110a557600080fd5b506110b287828801611006565b95989497509550505050565b6000806000606084860312156110d357600080fd5b833567ffffffffffffffff8111156110ea57600080fd5b840161016081870312156110fd57600080fd5b95602085013595506040909401359392505050565b6001600160a01b038116811461092f57600080fd5b6000806040838503121561113a57600080fd5b823561114581611112565b946020939093013593505050565b634e487b7160e01b600052604160045260246000fd5b6000806040838503121561117c57600080fd5b823561118781611112565b9150602083013567ffffffffffffffff808211156111a457600080fd5b818501915085601f8301126111b857600080fd5b8135818111156111ca576111ca611153565b604051601f8201601f19908116603f011681019083821181831017156111f2576111f2611153565b8160405282815288602084870101111561120b57600080fd5b8260208601602083013760006020848301015280955050505050509250929050565b60005b83811015611248578181015183820152602001611230565b50506000910152565b602081526000825180602084015261127081604085016020870161122d565b601f01601f19169190910160400192915050565b6000806000806060858703121561129a57600080fd5b84356112a581611112565b935060208501359250604085013567ffffffffffffffff808211156112c957600080fd5b818701915087601f8301126112dd57600080fd5b8135818111156112ec57600080fd5b8860208285010111156112fe57600080fd5b95989497505060200194505050565b60006020828403121561131f57600080fd5b813561039481611112565b634e487b7160e01b600052603260045260246000fd5b6000808335601e1984360301811261135757600080fd5b83018035915067ffffffffffffffff82111561137257600080fd5b60200191503681900382131561104b57600080fd5b60006020828403121561139957600080fd5b5051919050565b600082516113b281846020870161122d565b9190910192915050565b634e487b7160e01b600052602160045260246000fdfe360894a13ba1a3210667c828492db98dca3e2076cc3735a920a3ca505d382bbca264697066735822122097a77665efc4bd152181c652919eaa1780ee025b0376e669ceb7f62789544dd564736f6c63430008180033",
  "linkReferences": {},
  "deployedLinkReferences": {}
}