{
  "_format": "hh-sol-artifact-1",
  "contractName": "NotesPaymaster",
  "sourceName": "contracts/NotesPaymaster.sol",
  "abi": [
    {
      "inputs": [
        {
          "internalType": "contract IEntryPoint",
          "name": "_entryPoint",
          "type": "address"
        }
      ],
      "stateMutability": "nonpayable",
      "type": "constructor"
    },
    {
      "anonymous": false,
      "inputs": [
        {
          "indexed": true,
          "internalType": "address",
          "name": "user",
          "type": "address"
        },
        {
          "indexed": true,
          "internalType": "bytes32",
          "name": "userOpHash",
          "type": "bytes32"
        }
      ],
      "name": "UserOperationSponsored",
      "type": "event"
    },
    {
      "inputs": [],
      "name": "entryPoint",
      "outputs": [
        {
          "internalType": "contract IEntryPoint",
          "name": "",
          "type": "address"
        }
      ],
      "stateMutability": "view",
      "type": "function"
    },
    {
      "inputs": [],
      "name": "fundPaymaster",
      "outputs": [],
      "stateMutability": "payable",
      "type": "function"
    },
    {
      "inputs": [],
      "name": "getDeposit",
      "outputs": [
        {
          "internalType": "uint256",
          "name": "",
          "type": "uint256"
        }
      ],
      "stateMutability": "view",
      "type": "function"
    },
    {
      "inputs": [],
      "name": "paymasterOwner",
      "outputs": [
        {
          "internalType": "address",
          "name": "",
          "type": "address"
        }
      ],
      "stateMutability": "view",
      "type": "function"
    },
    {
      "inputs": [
        {
          "internalType": "enum IPaymaster.PostOpMode",
          "name": "mode",
          "type": "uint8"
        },
        {
          "internalType": "bytes",
          "name": "context",
          "type": "bytes"
        },
        {
          "internalType": "uint256",
          "name": "actualGasCost",
          "type": "uint256"
        }
      ],
      "name": "postOp",
      "outputs": [],
      "stateMutability": "nonpayable",
      "type": "function"
    },
    {
      "inputs": [
        {
          "components": [
            {
              "internalType": "address",
              "name": "sender",
              "type": "address"
            },
            {
              "internalType": "uint256",
              "name": "nonce",
              "type": "uint256"
            },
            {
              "internalType": "bytes",
              "name": "initCode",
              "type": "bytes"
            },
            {
              "internalType": "bytes",
              "name": "callData",
              "type": "bytes"
            },
            {
              "internalType": "uint256",
              "name": "callGasLimit",
              "type": "uint256"
            },
            {
              "internalType": "uint256",
              "name": "verificationGasLimit",
              "type": "uint256"
            },
            {
              "internalType": "uint256",
              "name": "preVerificationGas",
              "type": "uint256"
            },
            {
              "internalType": "uint256",
              "name": "maxFeePerGas",
              "type": "uint256"
            },
            {
              "internalType": "uint256",
              "name": "maxPriorityFeePerGas",
              "type": "uint256"
            },
            {
              "internalType": "bytes",
              "name": "paymasterAndData",
              "type": "bytes"
            },
            {
              "internalType": "bytes",
              "name": "signature",
              "type": "bytes"
            }
          ],
          "internalType": "struct UserOperation",
          "name": "userOp",
          "type": "tuple"
        },
        {
          "internalType": "bytes32",
          "name": "userOpHash",
          "type": "bytes32"
        },
        {
          "internalType": "uint256",
          "name": "maxCost",
          "type": "uint256"
        }
      ],
      "name": "validatePaymasterUserOp",
      "outputs": [
        {
          "internalType": "bytes",
          "name": "context",
          "type": "bytes"
        },
        {
          "internalType": "uint256",
          "name": "validationData",
          "type": "uint256"
        }
      ],
      "stateMutability": "nonpayable",
      "type": "function"
    },
    {
      "inputs": [
        {
          "internalType": "address payable",
          "name": "withdrawAddress",
          "type": "address"
        },
        {
          "internalType": "uint256",
          "name": "amount",
          "type": "uint256"
        }
      ],
      "name": "withdrawFunds",
      "outputs": [],
      "stateMutability": "nonpayable",
      "type": "function"
    }
  ],
  "bytecode": "0x60a060405234801561001057600080fd5b506040516107f93803806107f983398101604081905261002f91610052565b6001600160a01b0316608052600080546001600160a01b03191633179055610082565b60006020828403121561006457600080fd5b81516001600160a01b038116811461007b57600080fd5b9392505050565b60805161073a6100bf6000396000818160b1015281816101eb0152818161025e01528181610339015281816103b10152610438015261073a6000f3fe6080604052600436106100705760003560e01c8063c10753291161004e578063c1075329146100f0578063c399ec8814610110578063cba3338314610133578063f465c77e1461015357600080fd5b80639021022c14610075578063a9a234091461007f578063b0d691fe1461009f575b600080fd5b61007d610181565b005b34801561008b57600080fd5b5061007d61009a36600461054b565b610253565b3480156100ab57600080fd5b506100d37f000000000000000000000000000000000000000000000000000000000000000081565b6040516001600160a01b0390911681526020015b60405180910390f35b3480156100fc57600080fd5b5061007d61010b3660046105f2565b6102c3565b34801561011c57600080fd5b50610125610399565b6040519081526020016100e7565b34801561013f57600080fd5b506000546100d3906001600160a01b031681565b34801561015f57600080fd5b5061017361016e36600461061e565b610429565b6040516100e7929190610672565b6000546001600160a01b031633146101d65760405162461bcd60e51b81526020600482015260136024820152722737ba103830bcb6b0b9ba32b91037bbb732b960691b60448201526064015b60405180910390fd5b60405163b760faf960e01b81523060048201527f00000000000000000000000000000000000000000000000000000000000000006001600160a01b03169063b760faf99034906024016000604051808303818588803b15801561023857600080fd5b505af115801561024c573d6000803e3d6000fd5b5050505050565b336001600160a01b037f000000000000000000000000000000000000000000000000000000000000000016146102bd5760405162461bcd60e51b815260206004820152600f60248201526e13db9b1e48115b9d1c9e541bda5b9d608a1b60448201526064016101cd565b50505050565b6000546001600160a01b031633146103135760405162461bcd60e51b81526020600482015260136024820152722737ba103830bcb6b0b9ba32b91037bbb732b960691b60448201526064016101cd565b60405163040b850f60e31b81526001600160a01b038381166004830152602482018390527f0000000000000000000000000000000000000000000000000000000000000000169063205c287890604401600060405180830381600087803b15801561037d57600080fd5b505af1158015610391573d6000803e3d6000fd5b505050505050565b6040516370a0823160e01b81523060048201526000907f00000000000000000000000000000000000000000000000000000000000000006001600160a01b0316906370a0823190602401602060405180830381865afa158015610400573d6000803e3d6000fd5b505050506040513d601f19601f8201168201806040525081019061042491906106c7565b905090565b60606000336001600160a01b037f000000000000000000000000000000000000000000000000000000000000000016146104975760405162461bcd60e51b815260206004820152600f60248201526e13db9b1e48115b9d1c9e541bda5b9d608a1b60448201526064016101cd565b826104a0610399565b10156104ee5760405162461bcd60e51b815260206004820152601e60248201527f496e73756666696369656e74207061796d61737465722062616c616e6365000060448201526064016101cd565b836104fc60208701876106e0565b6001600160a01b03167f5ac51fb2e1a6bcca5136117c6e93cb17bf4d260a6273326fa7d25cea25d6c65d60405160405180910390a3505060408051602081019091526000808252935093915050565b6000806000806060858703121561056157600080fd5b84356003811061057057600080fd5b9350602085013567ffffffffffffffff8082111561058d57600080fd5b818701915087601f8301126105a157600080fd5b8135818111156105b057600080fd5b8860208285010111156105c257600080fd5b95986020929092019750949560400135945092505050565b6001600160a01b03811681146105ef57600080fd5b50565b6000806040838503121561060557600080fd5b8235610610816105da565b946020939093013593505050565b60008060006060848603121561063357600080fd5b833567ffffffffffffffff81111561064a57600080fd5b8401610160818703121561065d57600080fd5b95602085013595506040909401359392505050565b604081526000835180604084015260005b818110156106a05760208187018101516060868401015201610683565b506000606082850101526060601f19601f8301168401019150508260208301529392505050565b6000602082840312156106d957600080fd5b5051919050565b6000602082840312156106f257600080fd5b81356106fd816105da565b939250505056fea2646970667358221220b990261d17310a8780079ccf3dc3945cc7297adf57033e1a2169d12f4e6c7aa664736f6c63430008180033",
  "linkReferences": {},
  "deployedLinkReferences": {}
}