{
  "_format": "hh-sol-artifact-1",
  "contractName": "NotesRegistry",
  "sourceName": "contracts/NotesRegistry.sol",
  "abi": [
    {
      "inputs": [
        {
          "internalType": "address",
          "name": "initialOwner",
          "type": "address"
        }
      ],
      "stateMutability": "nonpayable",
      "type": "constructor"
    },
    {
      "inputs": [
        {
          "internalType": "address",
          "name": "owner",
          "type": "address"
        }
      ],
      "name": "OwnableInvalidOwner",
      "type": "error"
    },
    {
      "inputs": [
        {
          "internalType": "address",
          "name": "account",
          "type": "address"
        }
      ],
      "name": "OwnableUnauthorizedAccount",
      "type": "error"
    },
    {
      "inputs": [],
      "name": "ReentrancyGuardReentrantCall",
      "type": "error"
    },
    {
      "anonymous": false,
      "inputs": [
        {
          "indexed": true,
          "internalType": "bytes32",
          "name": "noteId",
          "type": "bytes32"
        },
        {
          "indexed": true,
          "internalType": "bytes32",
          "name": "noteHash",
          "type": "bytes32"
        },
        {
          "indexed": true,
          "internalType": "address",
          "name": "owner",
          "type": "address"
        },
        {
          "indexed": false,
          "internalType": "uint256",
          "name": "timestamp",
          "type": "uint256"
        }
      ],
      "name": "NoteRegistered",
      "type": "event"
    },
    {
      "anonymous": false,
      "inputs": [
        {
          "indexed": true,
          "internalType": "bytes32",
          "name": "noteId",
          "type": "bytes32"
        },
        {
          "indexed": true,
          "internalType": "bytes32",
          "name": "newNoteHash",
          "type": "bytes32"
        },
        {
          "indexed": false,
          "internalType": "uint256",
          "name": "timestamp",
          "type": "uint256"
        }
      ],
      "name": "NoteUpdated",
      "type": "event"
    },
    {
      "anonymous": false,
      "inputs": [
        {
          "indexed": true,
          "internalType": "address",
          "name": "previousOwner",
          "type": "address"
        },
        {
          "indexed": true,
          "internalType": "address",
          "name": "newOwner",
          "type": "address"
        }
      ],
      "name": "OwnershipTransferred",
      "type": "event"
    },
    {
      "inputs": [
        {
          "internalType": "bytes32",
          "name": "noteId",
          "type": "bytes32"
        }
      ],
      "name": "getNote",
      "outputs": [
        {
          "internalType": "bytes32",
          "name": "noteHash",
          "type": "bytes32"
        },
        {
          "internalType": "address",
          "name": "owner",
          "type": "address"
        },
        {
          "internalType": "uint256",
          "name": "timestamp",
          "type": "uint256"
        },
        {
          "internalType": "bool",
          "name": "exists",
          "type": "bool"
        }
      ],
      "stateMutability": "view",
      "type": "function"
    },
    {
      "inputs": [
        {
          "internalType": "address",
          "name": "user",
          "type": "address"
        }
      ],
      "name": "getUserNoteCount",
      "outputs": [
        {
          "internalType": "uint256",
          "name": "",
          "type": "uint256"
        }
      ],
      "stateMutability": "view",
      "type": "function"
    },
    {
      "inputs": [
        {
          "internalType": "address",
          "name": "user",
          "type": "address"
        }
      ],
      "name": "getUserNotes",
      "outputs": [
        {
          "internalType": "bytes32[]",
          "name": "",
          "type": "bytes32[]"
        }
      ],
      "stateMutability": "view",
      "type": "function"
    },
    {
      "inputs": [
        {
          "internalType": "bytes32",
          "name": "",
          "type": "bytes32"
        }
      ],
      "name": "notes",
      "outputs": [
        {
          "internalType": "bytes32",
          "name": "noteHash",
          "type": "bytes32"
        },
        {
          "internalType": "address",
          "name": "owner",
          "type": "address"
        },
        {
          "internalType": "uint256",
          "name": "timestamp",
          "type": "uint256"
        },
        {
          "internalType": "bool",
          "name": "exists",
          "type": "bool"
        }
      ],
      "stateMutability": "view",
      "type": "function"
    },
    {
      "inputs": [],
      "name": "owner",
      "outputs": [
        {
          "internalType": "address",
          "name": "",
          "type": "address"
        }
      ],
      "stateMutability": "view",
      "type": "function"
    },
    {
      "inputs": [
        {
          "internalType": "bytes32",
          "name": "noteId",
          "type": "bytes32"
        },
        {
          "internalType": "bytes32",
          "name": "noteHash",
          "type": "bytes32"
        }
      ],
      "name": "registerNote",
      "outputs": [],
      "stateMutability": "nonpayable",
      "type": "function"
    },
    {
      "inputs": [],
      "name": "renounceOwnership",
      "outputs": [],
      "stateMutability": "nonpayable",
      "type": "function"
    },
    {
      "inputs": [
        {
          "internalType": "address",
          "name": "newOwner",
          "type": "address"
        }
      ],
      "name": "transferOwnership",
      "outputs": [],
      "stateMutability": "nonpayable",
      "type": "function"
    },
    {
      "inputs": [
        {
          "internalType": "bytes32",
          "name": "noteId",
          "type": "bytes32"
        },
        {
          "internalType": "bytes32",
          "name": "newNoteHash",
          "type": "bytes32"
        }
      ],
      "name": "updateNote",
      "outputs": [],
      "stateMutability": "nonpayable",
      "type": "function"
    },
    {
      "inputs": [
        {
          "internalType": "address",
          "name": "",
          "type": "address"
        },
        {
          "internalType": "uint256",
          "name": "",
          "type": "uint256"
        }
      ],
      "name": "userNotes",
      "outputs": [
        {
          "internalType": "bytes32",
          "name": "",
          "type": "bytes32"
        }
      ],
      "stateMutability": "view",
      "type": "function"
    },
    {
      "inputs": [
        {
          "internalType": "bytes32",
          "name": "noteId",
          "type": "bytes32"
        },
        {
          "internalType": "bytes32",
          "name": "expectedHash",
          "type": "bytes32"
        }
      ],
      "name": "verifyNote",
      "outputs": [
        {
          "internalType": "bool",
          "name": "",
          "type": "bool"
        }
      ],
      "stateMutability": "view",
      "type": "function"
    }
  ],
  "bytecode": "0x608060405234801561001057600080fd5b5060405161095e38038061095e83398101604081905261002f916100c2565b806001600160a01b03811661005e57604051631e4fbdf760e01b81526000600482015260240160405180910390fd5b61006781610072565b5050600180556100f2565b600080546001600160a01b038381166001600160a01b0319831681178455604051919092169283917f8be0079c531659141344cd1fd0a4f28419497f9722a3daafe3b4186f6b6457e09190a35050565b6000602082840312156100d457600080fd5b81516001600160a01b03811681146100eb57600080fd5b9392505050565b61085d806101016000396000f3fe608060405234801561001057600080fd5b50600436106100a95760003560e01c806398df3d001161007157806398df3d001461018f578063b0bb808d146101f5578063d0ccd9f814610208578063d1075d6114610228578063eb0283521461024b578063f2fde38b1461025e57600080fd5b8063186ffcc8146100ae578063715018a6146100ea57806385de26b7146100f45780638da5cb5b146101615780638ef33e111461017c575b600080fd5b6100d76100bc366004610763565b6001600160a01b031660009081526003602052604090205490565b6040519081526020015b60405180910390f35b6100f2610271565b005b61013761010236600461077e565b6002602081905260009182526040909120805460018201549282015460039092015490926001600160a01b0316919060ff1684565b604080519485526001600160a01b03909316602085015291830152151560608201526080016100e1565b6000546040516001600160a01b0390911681526020016100e1565b6100f261018a366004610797565b610285565b61013761019d36600461077e565b6000908152600260208181526040928390208351608081018552815480825260018301546001600160a01b03169382018490529382015494810185905260039091015460ff1615156060909101819052919390929190565b6100f2610203366004610797565b6103e0565b61021b610216366004610763565b610590565b6040516100e191906107b9565b61023b610236366004610797565b6105fc565b60405190151581526020016100e1565b6100d76102593660046107fd565b610631565b6100f261026c366004610763565b610662565b6102796106a0565b61028360006106cd565b565b61028d61071d565b60008281526002602052604090206003015460ff166102e95760405162461bcd60e51b8152602060048201526013602482015272139bdd1948191bd95cc81b9bdd08195e1a5cdd606a1b60448201526064015b60405180910390fd5b6000828152600260205260409020600101546001600160a01b031633146103435760405162461bcd60e51b815260206004820152600e60248201526d2737ba103737ba329037bbb732b960911b60448201526064016102e0565b806103845760405162461bcd60e51b8152602060048201526011602482015270092dcecc2d8d2c840dcdee8ca40d0c2e6d607b1b60448201526064016102e0565b6000828152600260208181526040928390208481554292018290559151908152829184917f141ef4e6fc056b236faf63b0a9982395599ca1f6392e7ea5e8d0c782ca917e20910160405180910390a36103dc60018055565b5050565b6103e861071d565b816104275760405162461bcd60e51b815260206004820152600f60248201526e125b9d985b1a59081b9bdd19481251608a1b60448201526064016102e0565b806104685760405162461bcd60e51b8152602060048201526011602482015270092dcecc2d8d2c840dcdee8ca40d0c2e6d607b1b60448201526064016102e0565b60008281526002602052604090206003015460ff16156104c05760405162461bcd60e51b81526020600482015260136024820152724e6f746520616c72656164792065786973747360681b60448201526064016102e0565b604080516080810182528281523360208083018281524284860181815260016060870181815260008b815260028088528a822099518a55955189840180546001600160a01b0319166001600160a01b0390921691909117905592519488019490945592516003968701805460ff19169115159190911790558481529483528585208054928301815585529382902001869055925191825291839185917fa04e5dec18839ec3f763bef44da66f0d0ceb16c2da0bc880231794dfecee9563910160405180910390a46103dc60018055565b6001600160a01b0381166000908152600360209081526040918290208054835181840281018401909452808452606093928301828280156105f057602002820191906000526020600020905b8154815260200190600101908083116105dc575b50505050509050919050565b60008281526002602052604081206003015460ff16801561062a575060008381526002602052604090205482145b9392505050565b6003602052816000526040600020818154811061064d57600080fd5b90600052602060002001600091509150505481565b61066a6106a0565b6001600160a01b03811661069457604051631e4fbdf760e01b8152600060048201526024016102e0565b61069d816106cd565b50565b6000546001600160a01b031633146102835760405163118cdaa760e01b81523360048201526024016102e0565b600080546001600160a01b038381166001600160a01b0319831681178455604051919092169283917f8be0079c531659141344cd1fd0a4f28419497f9722a3daafe3b4186f6b6457e09190a35050565b60026001540361074057604051633ee5aeb560e01b815260040160405180910390fd5b6002600155565b80356001600160a01b038116811461075e57600080fd5b919050565b60006020828403121561077557600080fd5b61062a82610747565b60006020828403121561079057600080fd5b5035919050565b600080604083850312156107aa57600080fd5b50508035926020909101359150565b6020808252825182820181905260009190848201906040850190845b818110156107f1578351835292840192918401916001016107d5565b50909695505050505050565b6000806040838503121561081057600080fd5b61081983610747565b94602093909301359350505056fea2646970667358221220ab43af2789fc6d1ff78040ea3cbf44ec6822dd908d7d673c666ed8ad2aa8c13a64736f6c63430008180033",
  "linkReferences": {},
  "deployedLinkReferences": {}
}